:03000000020026D5
:0F0023000200417589207534FD85348D75985024
:0F00320075A89079007A00D28ED22ED22F80FE40
:1000410020997ABA00028070BA0107AB99E92BF9BD
:100051008066BA0213AE998E83E92583F9202E02B8
:1000610080568E30C22E8050BA0313AF998F82E929
:0E0071002582F9202F0280408F31C22F803A65
:10007F00BA0415E599B4010A85308385318211C11F
:10008F0080FEE92599F98022BB0017E9F42401F9D4
:10009F007AFF7900C39599B40002800E8E838F8208
:0F00AF008008E599E92599F9A31B0AC3C2983285
:1000BE00C29932E582540FF550E582C4540FF551C2
:0F00CE00E583540FF552E583C4540FF553C082F8
:0F00DD00C083901BB7E55093F550E55193F55153
:1000EC00E55293F552E55393F55390EC007493F06D
:0E00FC00A3E550F090EC007492F0A3E551F0F3
:10010A0090EC007491F0A3E552F090EC007490F03A
:09011A00A3E553F0D083D082224A
:00000001FF
