:03000000020026D5
:0F0023000200417589207534FD85348D75985024
:0F00320075A89079007A00D28ED22ED22F80FE40
:1000410020997DBA00028073BA0107AB99E92BF9B7
:100051008069BA0213AE998E83E92583F9202E02B5
:1000610080598E30C22E8053BA0313AF998F82E923
:0E0071002582F9202F0280438F31C22F803D5F
:10007F00BA0415E599B4010A85308385318211C41C
:10008F0080FEE92599F98025BB0017E9F42401F9D1
:10009F007AFF7900C39599B4000280118E838F8205
:0F00AF00800BE5991218ADE92599F9A31B0AC337
:0F00BE00C29832C29932540FF550E582C4540FE4
:0F00CD00F551E583540FF552E583C4540FF553F5
:0F00DC00C082C083901BB7E55093F550E5519358
:0F00EB00F551E55293F552E55393F55390EC0020
:1000FA007493F0A3E550F090EC007492F0A3E551EC
:10010A00F090EC007491F0A3E552F090EC0074903A
:0A011A00F0A3E553F0D083D0822259
:00000001FF
