:03000000020026D5
:10002300020071753310753230753110753020C38D
:10003300E5329530F535E5339531F53679007A00BB
:100043007B00AC36AD35EDC3C22E2CFD74003CFCF9
:0F0053008531838530827589207534FD85348D24
:0F00620085348B75984075A890D28ED29980FE08
:10007100C299BA000575993A8060BA010FBC0002B5
:10008100EDFB7BFF1CE92BF98B99804EBA0209E944
:0F0091002531F98531998042BA0309E92530F903
:1000A0008530998036BA0410202E05759900802B72
:0F00B000759901C22E020000BB0019E9F424016A
:0F00BF00F5997AFF7900858230858331BC000482
:1000CE00D22E80098007E029F9F599A31B0AC332C5
:00000001FF
